:030000000200DF1C
:0C00DF00787FE4F6D8FD7581070200036D
:100003001200EB1200627F857E001200C77F53123D
:1000130000F57F611200F57F751200F57F6D120008
:10002300F57F691200F57F6C1200F57FC47E001224
:1000330000C77F491200F57F4C1200F57F6F120055
:10004300F57F761200F57F651200F57F591200F5F2
:0F0053007F6F1200F57F751200F51200D180FE4D
:0A00EB00E4F580F590F5A0F5B022D1
:0800A0008FA0D2917F967E0033
:1000A800E4FDFCC3ED9FEE6480F8EC648098500793
:0700B8000DBD00010C80ECFE
:0100BF00221E
:0700C0001200A87F307E0052
:0A00C700C2901200A0C2910200A82E
:0A00F500D2901200A0C2910200A8F0
:100062007F987E3A1200C07F947E111200C07F2CCE
:100072007E011200A87F301E1200C77F587E021236
:1000820000A87F387E001200C77F0C7E001200C7D6
:0E0092007F017E001200C77F067E000200C7BD
:0E00D1007F027E001200C77FF47E010200A8AD
:00000001FF
